:020000040800F2
:1000000000800220411100088503000887030008D2
:10001000890300088B0300088D030008000000001E
:100020000000000000000000000000008F03000836
:1000300091030008000000009303000895030008E6
:100040009111000891110008911100089111000808
:1000500091110008911100089111000891110008F8
:1000600091110008911100089111000891110008E8
:1000700091110008911100089111000891110008D8
:1000800091110008911100089111000891110008C8
:1000900091110008911100089111000891110008B8
:1000A00091110008911100089111000891110008A8
:1000B0009111000891110008000000009111000842
:1000C0009111000891110008911100089111000888
:1000D0009111000891110008911100089111000878
:1000E00091110008911100080000000000000000BC
:1000F0000000000000000000000000000000000000
:10010000000000009111000800000000911100089B
:10011000911100080000000091110008000000008B
:100120009111000891110008911100089111000827
:1001300091110008911100089111000800000000C1
:100140009111000891110008911100089111000807
:1001500091110008911100089111000891110008F7
:100160009111000891110008911100080000000091
:1001700000000000911100080000000000000000D5
:1001800091110008911100089111000891110008C7
:0401900091110008C1
:1001A00010B5054C237833B9044B13B10448AFF3B1
:1001B00000800123237010BD6800002000000000B3
:1001C000B41F000808B5034B1BB103490348AFF344
:1001D000008008BD000000006C000020B41F000873
:1001E00001F0FF01102A2BDB10F0070F08D010F8E8
:1001F000013B013A8B422DD010F0070F42B3F6D1EC
:10020000F0B441EA012141EA014122F007047FF004
:1002100000070023F0E80256083C85EA010586EA5B
:10022000010685FA47F5A3FA87F586FA47F6A5FA97
:1002300087F68EB9EED1F0BC01F0FF0102F00702A3
:1002400032B110F8013B013A83EA010313B1F8D14E
:100250000020704701387047002D06BF354603382F
:10026000073815F0010F07D1013015F4807F02BF68
:10027000013015F4C03F0130F0BC0138704700BFB9
:10028000F0B583B000F042FC00F056FD00F072FCC7
:1002900000F0D8FC00F02CFD384C00230322202174
:1002A000204600F0F7FDFF2301222021204600F028
:1002B000F1FD002303222621204600F0EBFDFF2361
:1002C00001222621204600F0E5FD492416E02B4DB1
:1002D000002301222146284600F026FE4FF4A053B9
:1002E00002222146284600F069FE4FF4C85303223B
:1002F0002146284600F062FE0134E4B24D2CE6D9D6
:100300000023009301930CE00023ADF8023000239A
:10031000ADF80430ADF80630194A0421684600F003
:100320009FFE1749042000F0D5FE0446C30EF8D105
:10033000050E05F00703062BEED110F47F0FEBD16D
:10034000C3B2DB430D4EDBB201222021304600F068
:10035000A1FD0746C4F30723DB43DBB201222621BC
:10036000304600F097FDADF80050002FCCD00028AB
:10037000CAD00123ADF80230C9E700BF00540040E5
:10038000003801407047FEE7FEE7FEE7FEE77047F2
:100390007047704770470023934223DA10B40CE093
:1003A00000BF4FF0604109680029F9D04FF060416B
:1003B000087001332146934210DA4C1C08784FF044
:1003C0006041D1F8801E11F0010FF2D04FF0604172
:1003D000D1F8001E11F0010FEBD0E2E710465DF8F6
:1003E000044B7047104670470346064A126822B114
:1003F000044A1068034413607047024A02491160BE
:10040000F6E700BF8400002094000020024B582231
:100410001A604FF0FF30704790000020024B5822C6
:100420001A604FF0FF30704790000020024B5822B6
:100430001A600020704700BF90000020024B582235
:100440001A604FF0FF30704790000020024B582296
:100450001A604FF0FF30704790000020F0B40A6837
:1004600092FAA2F2B2FA82F218E00E69C46893FA24
:10047000A3F5B5FA85F56D00032707FA05F524EA1B
:10048000050493FAA3F5B5FA85F56D0006FA05F5AE
:100490002C43C4604C68022C36D001320B6833FA0E
:1004A00002F464D0012494402340F6D04E680468DE
:1004B00093FAA3F5B5FA85F56D00032707FA05F55C
:1004C00024EA050493FAA3F5B5FA85F56D0006FA5A
:1004D00005F52C4304604C68013C012CC5D88E689E
:1004E000846893FAA3F5B5FA85F56D0007FA05F56A
:1004F00024EA050493FAA3F5B5FA85F56D0006FA2A
:1005000005F52C438460B0E793FAA3F4B4FA84F4BD
:10051000072C15D84D69046A93FAA3F6B6FA86F645
:10052000B6000F2707FA06F624EA060493FAA3F3A7
:10053000B3FA83F39B0005FA03F323430362ACE7AA
:100540004C69456A1B0A93FAA3F6B6FA86F6B6001A
:100550000F2707FA06F625EA060593FAA3F3B3FA7E
:1005600083F39B0004FA03F32B43436295E74A6845
:10057000013A012A02D90120F0BC7047C9684268DB
:1005800022EA030201FB03F313434360F3E710B4D1
:10059000036823F0010303608A68CC68036823F4CE
:1005A000F85342EA0422134303604B680361036873
:1005B00043F001030360836823F4004383600A6906
:1005C0008C69836823F4FF6323F0070322431343FA
:1005D00083600B691BB1836843F4004383600B683D
:1005E000026822F44012134303604B69426822F40C
:1005F00000421343436001205DF8044B7047000044
:10060000034B9B68C3F30313024AD35CD840704783
:1006100000100240CC1F0008034B9B68C3F3022369
:10062000024AD35CD840704700100240DC1F00082B
:10063000034B9B68C3F3C223024AD35CD840704784
:1006400000100240DC1F0008394BDB6803F0030395
:10065000012B16D0002B3FD0364A354BD868C0F35B
:1006600002100130B2FBF0F2D868C0F3062000FBA4
:1006700002F0DB68C3F3416301335B00B0FBF3F0CE
:1006800070472B4B1B6813F0080F11D1284B1B68C8
:1006900013F0080F06D0264B1B680023264A52F899
:1006A0002320DAE7224BD3F89430C3F30323F5E792
:1006B0001F4B1B6813F0080F07D01D4B1B68C3F3BB
:1006C00003131D4A52F82320C7E7194BD3F894307F
:1006D0001B0903F0F003F4E7154B1B6813F0080F38
:1006E00011D1134B1B6813F0080F06D0104B1B6879
:1006F0000023114A52F82320AFE70D4BD3F8943072
:10070000C3F30323F5E70A4B1B6813F0080F07D068
:10071000074B1B68C3F30313074A52F823209CE7D7
:10072000034BD3F894301B0903F0F003F4E700BF48
:10073000001002400024F400E41F000808B5354B07
:100740009B6803F00C030C2B36D8DFE803F0073569
:100750003535603535356035353532002D4B1B6804
:1007600013F0080F11D12B4B1B6813F0080F06D0A4
:10077000284B1B680023284A52F8230048E0254BE9
:10078000D3F89430C3F30323F5E7224B1B6813F02F
:10079000080F07D01F4B1B68C3F303131E4A52F800
:1007A000230035E01B4BD3F894301B0903F0F00312
:1007B000F4E7FFF749FF2BE0164B1B6813F0080F17
:1007C00011D1144B1B6813F0080F06D0114B1B6896
:1007D0000023114A52F823001AE00E4BD3F894304C
:1007E000C3F30323F5E70B4B1B6813F0080F07D087
:1007F000084B1B68C3F30313074A52F8230007E0B2
:10080000044BD3F894301B0903F0F003F4E70348DA
:1008100008BD00BF00100240E41F00080024F400DF
:1008200008B5032805D00C282BD0302851D0002043
:1008300008BD434BD3F88830034043EA0040414BA6
:1008400098420FD0B0F1031F13D0013B984206D05D
:10085000FFF774FFFFF7D4FEFFF7EAFEE8E7FFF7C4
:100860006DFFE5E7364B1B6813F4806F59D100200C
:10087000DEE7334BD3F8903013F0020F53D1002052
:10088000D6E72F4BD3F88830034043EA00402E4B85
:1008900098420FD0B0F10C1F13D0043B984206D001
:1008A000FFF74CFFFFF7ACFEFFF7B6FEC0E7FFF720
:1008B00045FFBDE7224B1B6813F4806F36D1002043
:1008C000B6E71F4BD3F8903013F0020F30D1002061
:1008D000AEE71B4BD3F88830034043EA00401B4B84
:1008E00098420FD0B0F1301F13D0103B984206D081
:1008F000FFF724FFFFF784FEFFF78EFE98E7FFF770
:100900001DFF95E70E4B1B6813F4806F13D1002079
:100910008EE70B4BD3F8903013F0020F0DD100206F
:1009200086E70B4884E74FF4004081E708487FE7FB
:100930004FF400407CE706487AE74FF4004077E741
:10094000001002400200030008000C0020003000EC
:100950000024F400C02801D00020704708B5164BD1
:10096000D3F88830034043EA0040144B98420FD03C
:10097000B0F1C01F13D0403B984206D0FFF7DEFE17
:10098000FFF73EFEFFF748FE01E0FFF7D7FE08BD88
:10099000094B1B6813F4806F09D10020F7E7064B61
:1009A000D3F8903013F0020F03D10020EFE7044892
:1009B000EDE74FF40040EAE7001002408000C0007D
:1009C0000024F40038B5036813F0010F53D10D462D
:1009D000044603682B4A1A404B68C9680B432969CF
:1009E0000B43A9690B4313430360AB68426822F4CD
:1009F0004052134343606B69826822F44072134390
:100A00008360214B98420AD0204B984219D0204B4A
:100A100098421AD01F4B98421BD000202CE0032094
:100A2000FFF7FEFE48B32A684AB3AB69B3F5004F3F
:100A300013D000EB5203B3FBF2F39BB2E36001204F
:100A40001AE00C20FFF7ECFEECE73020FFF7E8FEA1
:100A5000E8E7C020FFF77EFFE4E7530803EB40031D
:100A6000B3FBF2F34FF6F0721A40C3F342031343A1
:100A7000E360012000E0002038BD0020FCE70020FA
:100A8000FAE700BFF369FFEF00380140004400407F
:100A900000480040004C0040054BA3FB003080099B
:100AA0000138044B586000229A6005221A60704792
:100AB000D34D621010E000E0014B1860704700BF9A
:100AC000000000200F49D1F8883043F47003C1F8CA
:100AD00088300D4B1A6842F001021A6000209860BD
:100AE0001A6822F0A85222F410221A604FF48052A1
:100AF000DA601A6822F480221A6098614FF000636D
:100B00008B60704700ED00E00010024082B0164B91
:100B10001A6E42F001021A661A6E02F00102019288
:100B2000019A9A6D42F080529A659B6D03F0805352
:100B30000093009B0D4BD96821F4E0610904090C76
:100B40000B4A0A43DA60DA6800221A76D9685A76C4
:100B5000D9689A76D968DA77D96883F82020D96875
:100B600083F8222002B070470010024000ED00E040
:100B70000003FA0570B590B02F4B1A6E42F4804214
:100B80001A661A6E02F480420292029ADA6C42F0FD
:100B90000102DA64DB6C03F001030193019B4FF463
:100BA000C063039302230493032305930025069552
:100BB00007950723089303A94FF09040FFF74EFCD9
:100BC0001E4B09934FF480560A960B950C950C23F7
:100BD0000D930E954FF400430F93194C09A920462D
:100BE000FFF7F0FE636843F480336360636843F4A7
:100BF00000336360636823F490436360A36823F069
:100C00002A03A360236843F0010323604FF4C05319
:100C100003930123049305950695079303A94FF0C9
:100C20009040FFF71BFC4FF090434FF400629A6135
:100C30009E6210B070BD00BF001002408096980008
:100C40000038014010B590B0254B9A6D42F4001267
:100C50009A659A6D02F400120292029ADA6C42F0DE
:100C60000202DA64DB6C03F002030193019BC023F0
:100C7000039302230493032305930123069307930D
:100C80000423089303A91748FFF7E8FB164C636891
:100C900043F000736360E36823F40043E360236878
:100CA00023F400232360236823F40033236000230C
:100CB00009930E4A0A920B930C930D930E930F9384
:100CC00009A92046FFF763FCE36823F4FF6323F0E0
:100CD0000603E360236843F00103236010B010BDF6
:100CE00000100240000400480054004091297000A8
:100CF0000B4B4CF6CC421A6045F255521A60032257
:100D00005A6040F6FF721A619A60054BDB6813F077
:100D1000070FFAD1024B4AF6AA221A60704700BFA9
:100D20000030004008B50A460146024800F05EFA6D
:100D300008BD00BF2820000838B54D4A136823F0CD
:100D4000070343F004031360136803F00703042B45
:100D500040F08680474A136823F4C06343F400736D
:100D60001360454B1A6842F480221A601A6842F4F4
:100D700080321A60404B1B6813F4003FFAD03E4AA1
:100D8000D2F8943043F00103C2F894303A4BD3F8D0
:100D9000943013F0020FF9D0374AD168374B0B402B
:100DA00043F4206343F00303D360136843F080737C
:100DB0001360D36843F08073D3602F4B1B6813F02C
:100DC000007FFAD02C4A936843F0030393602A4BC8
:100DD0009B6803F00C030C2BF9D1274CA36823F07C
:100DE000F003A360A36823F4E063A360A36823F483
:100DF0006053A360224D2846FFF74EFE214A136838
:100E000043F0040313602846FFF756FED4F88830F9
:100E100023F0030343F00103C4F888301A4A13682F
:100E200023F4405343F480531360184BDA68C2F341
:100E30000222C2F10703042B28BF04231946131D05
:100E4000062B12D9033A4FF0FF338B40DB4303F0FC
:100E50000F0393401B01DBB20C4A82F8233038BDEC
:100E600045210B48FFF75EFF74E70022EBE700BF68
:100E70000020024000700040001002408C80FFF90A
:100E800000B4C40410E000E08810024000ED00E06F
:100E90001420000838B54900C9B20024856915F44A
:100EA000004F09D001341E4DAC42F7D123211D481B
:100EB000FFF738FF002032E0446824F07F7424F408
:100EC0005F3424F47F7424F0030441F0024141F4C0
:100ED000083121434160816911F0010FFBD082622A
:100EE0000022816911F0010F0BD101320C498A42B5
:100EF000F7D10123836132210A48FFF713FF002055
:100F00000DE08362836913F0010FFBD0836913F056
:100F1000200FFBD0C36943F02003C361012038BD1B
:100F2000A08601005820000838B54900C9B2002445
:100F3000856915F4004F09D001341E4DAC42F7D13C
:100F40004C211D48FFF7EEFE002032E0446824F0FB
:100F50007F7424F45F3424F47F7424F0030441F09C
:100F6000024141F4083121434160816911F0010FD0
:100F7000FBD082620022816911F0010F0BD1013296
:100F80000C498A42F7D1012383615B210A48FFF7AC
:100F9000C9FE00200DE08362836913F0010FFBD0CE
:100FA000836913F0200FFBD0C36943F02003C361B2
:100FB000012038BDA08601005820000838B549003E
:100FC000C9B20024856915F4004F09D00134224DBF
:100FD000AC42F7D175212148FFF7A4FE002039E08B
:100FE000446824F07F7424F45F3424F47F7424F084
:100FF000030441F0024141F44831214341608169D9
:1010000011F0010FFBD082620022816911F0010F03
:101010000BD1013210498A42F7D101238361842127
:101020000E48FFF77FFE002014E01A0A82628269F0
:1010300012F0010FFBD0DBB28362836913F0010F62
:10104000FBD0836913F0200FFBD0C36943F020036A
:10105000C361012038BD00BFA086010058200008F0
:1010600038B50023D46914F0800F09D10133174C2F
:10107000A342F7D119211648FFF754FE002022E0C1
:10108000002509E030F81530C3F3080343F48073FA
:1010900013850AE00135EDB28D4215D2002DF1D055
:1010A00030F81530C3F3080313850023D46914F016
:1010B000400FEFD10133054CA342F7D12C21044856
:1010C000FFF730FE002038BD0120FCE78096980035
:1010D0006820000810B582B00024019406E08A8CD4
:1010E00002AB234403F8042C0134E4B2844213D24B
:1010F0000023CA6912F0200FF1D101330E4A934246
:10110000F7D10C4646210D48FFF70CFE0823236259
:101110004FF0FF3002B010BD9DF804309DF805007F
:10112000000440EA03609DF8063040EA03209DF881
:1011300007301843EEE700BF00E1F505682000081E
:10114000DFF834D0002103E00C4B5B5843500431EE
:101150000B480C4B42189A42F6D30B4A02E000238C
:1011600042F8043B094B9A42F9D3FFF7ABFC00F07D
:1011700011F8FFF785F8FEE700800220182100082B
:10118000000000206800002068000020940000207B
:10119000FEE7000070B50D4E0D4CA41BA4100025F9
:1011A000A54209D10B4E0C4C00F004FFA41BA41067
:1011B0000025A54205D170BD56F825309847013568
:1011C000EEE756F8253098470135F2E71021000880
:1011D00010210008102100081421000802440346D1
:1011E000934200D1704703F8011BF9E70FB40A4B93
:1011F00013B51C6824B1A36913B9204600F04EF85A
:1012000005AB049AA1680193204600F0A3F902B04F
:10121000BDE8104004B0704704000020002310B562
:101220000446C0E90033836081814366C281C0E91E
:1012300004338361194608225C30FFF7CFFF054B6A
:101240006362054BA362054BE362054B2462236393
:1012500010BD00BFB11A0008D31A00080B1B00080C
:101260002F1B0008014900F085B800BF091E0008C7
:1012700070B54A1E682555430E4605F1740100F00D
:10128000E5F8044640B10021C0E900160C30A0602A
:1012900005F16802FFF7A2FF204670BD836910B513
:1012A000044633BBC0E912330365124B124A1B6874
:1012B0008262984204BF0123836100F01FF86060DE
:1012C000204600F01BF8A060204600F017F800222E
:1012D000E06004216068FFF7A1FF01220921A068F6
:1012E000FFF79CFF02221221E068FFF797FF01231E
:1012F000A36110BD7820000865120008F8B51B4BEB
:101300001E68B369074613B93046FFF7C7FF483672
:10131000D6E90134013B03D5336833B13668F7E7CA
:10132000B4F90C506DB16834F4E704213846FFF786
:101330009FFF30600028F1D10C233B60044620461B
:10134000F8BD0B4B6566C4E90055A560C4E90335DB
:10135000C4E905550822294604F15C00FFF73EFF69
:10136000C4E90D55C4E91255E9E700BF782000082B
:101370000100FFFF2DE9F8438046894600F148044B
:10138000002614B93046BDE8F883D4E90175013F61
:1013900001D52468F5E7AB89012B07D9B5F90E30E3
:1013A000013303D029464046C84706436835EEE777
:1013B00038B50546002945D051F8043C0C1F002BD8
:1013C000B8BFE41800F0C0FD1F4A1368104633B9D7
:1013D000636014602846BDE8384000F0B6BDA34203
:1013E0000CD921686218934204BF1A685B68636075
:1013F00004BF521822600460ECE713465A680AB131
:10140000A242FAD919685818A0420BD120680144A9
:10141000581882421960DDD1106852685A60014440
:101420001960D7E702D90C232B60D3E72068211875
:101430008A4204BF11685268626004BF09182160C3
:101440005C60C7E738BD00BF8800002070B5CD1CC8
:1014500025F0030508350C2D38BF0C25002D064658
:1014600001DBA94203D90C233360002070BD00F0DA
:101470006BFD214A1468214691B9204C23681BB9A1
:10148000304600F005FB20602946304600F000FBA6
:10149000431C24D10C233360304600F056FDE4E7B2
:1014A0000B685B1B18D40B2B0FD90B60CD50CC18DD
:1014B000304600F04AFD04F10B00231D20F0070028
:1014C000C31AD3D05A42E250D0E78C424B6816BFC1
:1014D000636013600C46EBE70C464968CCE7C41C1C
:1014E00024F00304A04205D0211A304600F0D0FABF
:1014F0000130CFD02560DBE7880000208C00002081
:101500009368013B002B10B4936008DA9469A342FE
:1015100001DB0A2903D15DF8044B00F00DBB136811
:10152000581C1060197008465DF8044B7047F8B5F8
:1015300006460F461446D518AC4201D1002007E0FC
:101540003A4614F8011B3046FFF7DAFF431CF3D18B
:10155000F8BD00002DE9F04F0C469DB017461D4622
:10156000064618B183690BB9FFF798FE7C4B9C4285
:1015700058D17468A38918075ED52369002B5BD006
:101580000023099320238DF8293030238DF82A3049
:1015900003954FF0010BB846454615F8013B0BB1DA
:1015A000252B54D1B8EB070A0BD053463A462146B7
:1015B0003046FFF7BCFF013000F0C280099B534466
:1015C000099398F80030002B00F0BA8000234FF008
:1015D000FF32CDE90523049307938DF853301A9316
:1015E000A846052218F8011B5E48FEF7F9FD049B8A
:1015F00078BBD90644BF20228DF853201A0744BF78
:101600002B228DF853202A782A2A2AD0079AA84616
:1016100000200A25414611F8013B303B092B69D9CE
:1016200060B324E0504B9C4201D1B468A2E74F4B19
:101630009C4208BFF4689DE72146304600F0E0FA7E
:1016400000289DD04FF0FF301DB0BDE8F08FA846B8
:10165000A2E7444A801A0BFA00F01843049045466A
:10166000BEE7039A111D12680391002A01DB07925D
:1016700004E0524243F002030792049398F80030CA
:101680002E2B0ED198F801302A2B38D1039B1A1D2E
:101690001B680392002BB8BF4FF0FF3308F102081C
:1016A0000593334D98F8001003222846FEF798FD65
:1016B00040B14023401B03FA00F0049B034308F1B0
:1016C0000108049398F800102A488DF82810062283
:1016D00008F10107FEF784FD002837D0264B1BBB1D
:1016E000039B073323F0070308330393099B4B4401
:1016F000099350E705FB0232012088468AE7002360
:1017000008F10108059319460A25404610F8012BF7
:10171000303A092A03D9002BC3D00591C1E705FB54
:10172000012101238046F0E703AB00932246134BCF
:1017300004A93046AFF30080B0F1FF3F8146D5D118
:10174000A3895B063FF57EAF09987DE703AB009365
:1017500022460A4B04A9304600F088F8ECE700BFA7
:101760009C200008DC200008BC2000087C20000829
:10177000E2200008E6200008000000002F15000805
:101780002DE9F04791461F468A680B69DDF82080F5
:101790009342B8BF1346C9F8003091F8432006467B
:1017A0000C4612B10133C9F800302368990642BFD4
:1017B000D9F800300233C9F80030256815F0060565
:1017C00007D104F1190AE368D9F800209B1AAB424B
:1017D00028DC94F843302268003318BF01239206B6
:1017E0002DD404F1430239463046C047013020D0A1
:1017F0002368E568D9F8002003F00603042B08BF2E
:10180000AD1AA36822690CBF25EAE575002593424D
:10181000C4BF9B1AED184FF000091A344D451AD178
:10182000002008E00123524639463046C0470130C7
:1018300003D14FF0FF30BDE8F0870135C3E7E11871
:101840005A1C302081F84300224494F8451082F855
:1018500043100233C5E70123224639463046C047CC
:101860000130E6D009F10109D8E700002DE9F04385
:1018700001F1430C0C46097E85B06E2917460646D9
:1018800098460C9A00F0B38022D8632936D00AD843
:10189000002900F0B980582900F0838004F1420546
:1018A00084F8421032E0642901D06929F6D1206819
:1018B0001368050603F104012AD51B681160002B8B
:1018C00003DA2D225B4284F843206F480A2239E074
:1018D000732900F09D8008D86F2920D07029DDD1B0
:1018E000236843F02003236003E0752917D078298B
:1018F000D4D1782384F84530644855E01368191D25
:101900001B68116004F1420584F8423001238CE029
:101910001B68116010F0400F18BF1BB2CFE71368AF
:101920002568181D1060280601D51B6802E06806AE
:10193000FBD51B8854486F2914BF0A2208220021B6
:1019400084F843106568A560002DC0F29580216879
:1019500021F004012160002B3DD1002D40F08E804C
:101960006546082A0BD12368DB0708D5236962681E
:101970009A42DEBF302305F8013C05F1FF35ACEBA0
:1019800005032361CDF800803B4603AA214630467B
:10199000FFF7F6FE01304DD14FF0FF3005B0BDE846
:1019A000F083394884F84510136821681D1D1B68B1
:1019B00015600A060BD5CA0744BF41F0200121601B
:1019C0001BB9226822F0200222601022B7E74D06E0
:1019D00048BF9BB2EFE76546B3FBF2F102FB113360
:1019E000C35C05F8013D0B460029F5D1B9E7136842
:1019F00025686169181D106028061B6801D51960EB
:101A000002E06A06FBD51980002323616546B9E729
:101A10001368191D11601D68626800212846FEF7D1
:101A2000DFFB08B1401B606063682361002384F81A
:101A30004330A7E723692A4639463046C04701307C
:101A4000AAD023689B0713D4E068039B9842B8BFD1
:101A50001846A3E701234A4639463046C0470130BD
:101A60009AD00135E368039A9B1AAB42F2DCEBE7AC
:101A7000002504F11909F5E7002BACD1037884F8AF
:101A8000423004F142056CE7ED200008FE2000081A
:101A900038B5064C0023054608462360FEF7A4FC33
:101AA000431C02D1236803B12B6038BD9000002095
:101AB00010B50C46B1F90E1000F048FA0028ABBF83
:101AC000636DA3891B1823F48053ACBF6365A381A6
:101AD00010BD2DE9F0411F468B89DB0505460C46FC
:101AE000164605D502230022B1F90E1000F0B6F912
:101AF000A389B4F90E1023F48053A38132463B46E8
:101B00002846BDE8F04100F069B810B50C46B1F9BF
:101B10000E1000F0A3F9431CA38915BF606523F4E0
:101B2000805343F48053A38118BFA38110BDB1F942
:101B30000E1000F0D3B80000F8B50E461446054666
:101B400018B183690BB9FFF7A9FB214B9C422AD13D
:101B50006C68A369A360A3891A072ED5236963B3B0
:101B600023692068C01A6369F6B28342374604DCF1
:101B70002146284600F048F928BBA368013BA36032
:101B800023685A1C22601E7063690130834204D0AE
:101B9000A389DB0719D50A2E17D12146284600F064
:101BA00033F990B10FE00B4B9C4201D1AC68D0E708
:101BB000094B9C4208BFEC68CBE72146284600F061
:101BC0001FF80028CCD04FF0FF373846F8BD00BFD3
:101BD0009C200008BC2000087C20000838B5074C79
:101BE000054608461146002222601A46FEF7D3FB3E
:101BF000431C02D1236803B12B6038BD9000002044
:101C0000324B70B51D6806460C4625B1AB6913B959
:101C10002846FFF743FB2E4B9C420FD16C68B4F96A
:101C20000C309AB215072CD4D00611D40922326098
:101C300043F04003A3814FF0FF303EE0254B9C4230
:101C400001D1AC68EBE7244B9C4208BFEC68E6E7A7
:101C5000510712D5616B41B104F14403994202D09E
:101C60003046FFF7A5FB00236363A38923F0240319
:101C7000A3810023636023692360A38943F00803E1
:101C8000A38123694BB9A38903F42073B3F5007FC3
:101C900003D02146304600F017F9A28912F0010363
:101CA0000CD00023A36063695B42A361236953B92D
:101CB000B4F90C3013F08000BAD170BD920758BF50
:101CC0006369A360F2E70020F7E700BF040000208B
:101CD0009C200008BC2000087C20000838B5064C79
:101CE0000023054608462360FEF790FB431C02D103
:101CF000236803B12B6038BD900000208A892DE94C
:101D0000F041054610070C4658D44B68002B05DC03
:101D10000B6C002B02DC0020BDE8F081E66A002E8F
:101D2000F9D0002312F480522F68216A2B6032D040
:101D3000606DA3895A0705D56368C01A636B0BB140
:101D4000236CC01A00230246E66A216A2846B0477F
:101D5000431CA38906D129681D2948D8294ACA40AD
:101D6000D60744D500226260D9042269226004D5D6
:101D7000421C01D12B6803B96065616B2F6000299B
:101D8000C9D004F14403994202D02846FFF710FB62
:101D900000206063C0E701232846B047411CC8D13A
:101DA0002B68002BC5D01D2B01D0162B01D12F6025
:101DB000B1E7A38943F04003A381ADE70F69002F8A
:101DC000A9D093070E6808BF4B690F6018BF0023A6
:101DD000A6EB07088B60B8F1000F9CDD43463A463E
:101DE000216AA66A2846B047002806DCA38943F08A
:101DF0004003A3814FF0FF308EE70744A8EB0008B3
:101E0000E9E700BF0100402038B50B6905460C46E4
:101E1000DBB118B183690BB9FFF740FA0C4B9C4258
:101E200009D16C68B4F90C307BB121462846BDE875
:101E30003840FFF763BF074B9C4201D1AC68F1E724
:101E4000054B9C4208BFEC68ECE7002038BD00BFA2
:101E50009C200008BC2000087C20000838B5074CF6
:101E6000054608461146002222601A46FEF7E6FAA9
:101E7000431C02D1236803B12B6038BD90000020C1
:101E800070B50E46B1F90E10002996B014461D46E5
:101E900007DA00232B60B3891A0610D44FF480634D
:101EA0000EE06A4600F064F80028F2DB019A02F4C2
:101EB0007042A2F500535A425A412A60EEE740238D
:101EC0000020236016B070BD8B8973B59D07064650
:101ED0000C4607D504F147032360236101236361A6
:101EE00002B070BD01AB6A46FFF7CAFF0099054614
:101EF0003046FFF7ABFA48B9B4F90C309A05EFD485
:101F000023F0030343F00203A381E3E70D4BB36225
:101F1000A389206043F08003A381009B6361019B40
:101F200020615BB1B4F90E10304600F033F828B1EF
:101F3000A38923F0030343F00103A381A3891D4375
:101F4000A581CDE7651200087047704738B5074C8A
:101F5000054608461146002222601A46FEF776FA28
:101F6000431C02D1236803B12B6038BD90000020D0
:101F700038B5074C00230546084611462360FEF796
:101F80004DFA431C02D1236803B12B6038BD00BF5A
:101F90009000002038B5064C002305460846236013
:101FA000FEF744FA431C02D1236803B12B6038BD0D
:101FB00090000020F8B500BFF8BC08BC9E467047F2
:0C1FC000F8B500BFF8BC08BC9E46704796
:101FCC0000000000000000000102030406070809DD
:101FDC000000000001020304A0860100400D030074
:101FEC00801A060000350C0040420F0080841E0051
:101FFC0000093D0000127A000024F40000366E0146
:10200C000048E801006CDC025372632F5365747551
:10201C00705065726970682E6300000057726F6EA5
:10202C006720706172616D65746572732076616C86
:10203C0075653A2066696C65202573206F6E206C7F
:10204C00696E652025640D0A000000005372632F31
:10205C006932635F636D2E63000000005372632F5F
:10206C00756172745F636F6D6D2E630008000020E4
:10207C000000000000000000000000000000000054
:10208C000000000000000000000000000000000044
:10209C000000000000000000000000000000000034
:1020AC000000000000000000000000000000000024
:1020BC000000000000000000000000000000000014
:1020CC000000000000000000000000000000000004
:1020DC00232D302B2000686C4C0065666745464705
:1020EC000030313233343536373839414243444588
:1020FC0046003031323334353637383961626364F7
:04210C006566000004
:04211000C5010008FD
:04211400A10100081D
:1021180000093D0008000020000000009C20000885
:10212800BC2000087C20000800000000000000001F
:102138000000000000000000000000000000000097
:102148000000000000000000000000000000000087
:102158000000000000000000000000000000000077
:102168000000000000000000000000000000000067
:0821780000000000000000005F
:04000005080011419D
:00000001FF
